{
  "_format": "hh-sol-artifact-1",
  "contractName": "ProofOfKnowledge",
  "sourceName": "contracts/pok.sol",
  "abi": [
    {
      "inputs": [],
      "stateMutability": "nonpayable",
      "type": "constructor"
    },
    {
      "anonymous": false,
      "inputs": [
        {
          "indexed": true,
          "internalType": "address",
          "name": "owner",
          "type": "address"
        },
        {
          "indexed": true,
          "internalType": "address",
          "name": "approved",
          "type": "address"
        },
        {
          "indexed": true,
          "internalType": "uint256",
          "name": "tokenId",
          "type": "uint256"
        }
      ],
      "name": "Approval",
      "type": "event"
    },
    {
      "anonymous": false,
      "inputs": [
        {
          "indexed": true,
          "internalType": "address",
          "name": "owner",
          "type": "address"
        },
        {
          "indexed": true,
          "internalType": "address",
          "name": "operator",
          "type": "address"
        },
        {
          "indexed": false,
          "internalType": "bool",
          "name": "approved",
          "type": "bool"
        }
      ],
      "name": "ApprovalForAll",
      "type": "event"
    },
    {
      "anonymous": false,
      "inputs": [
        {
          "indexed": true,
          "internalType": "address",
          "name": "previousOwner",
          "type": "address"
        },
        {
          "indexed": true,
          "internalType": "address",
          "name": "newOwner",
          "type": "address"
        }
      ],
      "name": "OwnershipTransferred",
      "type": "event"
    },
    {
      "anonymous": false,
      "inputs": [
        {
          "indexed": true,
          "internalType": "address",
          "name": "from",
          "type": "address"
        },
        {
          "indexed": true,
          "internalType": "address",
          "name": "to",
          "type": "address"
        },
        {
          "indexed": true,
          "internalType": "uint256",
          "name": "tokenId",
          "type": "uint256"
        }
      ],
      "name": "Transfer",
      "type": "event"
    },
    {
      "inputs": [
        {
          "internalType": "address",
          "name": "to",
          "type": "address"
        },
        {
          "internalType": "uint256",
          "name": "tokenId",
          "type": "uint256"
        }
      ],
      "name": "approve",
      "outputs": [],
      "stateMutability": "nonpayable",
      "type": "function"
    },
    {
      "inputs": [
        {
          "internalType": "address",
          "name": "owner",
          "type": "address"
        }
      ],
      "name": "balanceOf",
      "outputs": [
        {
          "internalType": "uint256",
          "name": "",
          "type": "uint256"
        }
      ],
      "stateMutability": "view",
      "type": "function"
    },
    {
      "inputs": [
        {
          "internalType": "uint256",
          "name": "tokenId",
          "type": "uint256"
        }
      ],
      "name": "getApproved",
      "outputs": [
        {
          "internalType": "address",
          "name": "",
          "type": "address"
        }
      ],
      "stateMutability": "view",
      "type": "function"
    },
    {
      "inputs": [
        {
          "internalType": "address",
          "name": "owner",
          "type": "address"
        },
        {
          "internalType": "address",
          "name": "operator",
          "type": "address"
        }
      ],
      "name": "isApprovedForAll",
      "outputs": [
        {
          "internalType": "bool",
          "name": "",
          "type": "bool"
        }
      ],
      "stateMutability": "view",
      "type": "function"
    },
    {
      "inputs": [],
      "name": "name",
      "outputs": [
        {
          "internalType": "string",
          "name": "",
          "type": "string"
        }
      ],
      "stateMutability": "view",
      "type": "function"
    },
    {
      "inputs": [],
      "name": "owner",
      "outputs": [
        {
          "internalType": "address",
          "name": "",
          "type": "address"
        }
      ],
      "stateMutability": "view",
      "type": "function"
    },
    {
      "inputs": [
        {
          "internalType": "uint256",
          "name": "tokenId",
          "type": "uint256"
        }
      ],
      "name": "ownerOf",
      "outputs": [
        {
          "internalType": "address",
          "name": "",
          "type": "address"
        }
      ],
      "stateMutability": "view",
      "type": "function"
    },
    {
      "inputs": [],
      "name": "renounceOwnership",
      "outputs": [],
      "stateMutability": "nonpayable",
      "type": "function"
    },
    {
      "inputs": [
        {
          "internalType": "address",
          "name": "to",
          "type": "address"
        },
        {
          "internalType": "string",
          "name": "uri",
          "type": "string"
        }
      ],
      "name": "safeMint",
      "outputs": [],
      "stateMutability": "nonpayable",
      "type": "function"
    },
    {
      "inputs": [
        {
          "internalType": "address",
          "name": "from",
          "type": "address"
        },
        {
          "internalType": "address",
          "name": "to",
          "type": "address"
        },
        {
          "internalType": "uint256",
          "name": "tokenId",
          "type": "uint256"
        }
      ],
      "name": "safeTransferFrom",
      "outputs": [],
      "stateMutability": "nonpayable",
      "type": "function"
    },
    {
      "inputs": [
        {
          "internalType": "address",
          "name": "from",
          "type": "address"
        },
        {
          "internalType": "address",
          "name": "to",
          "type": "address"
        },
        {
          "internalType": "uint256",
          "name": "tokenId",
          "type": "uint256"
        },
        {
          "internalType": "bytes",
          "name": "data",
          "type": "bytes"
        }
      ],
      "name": "safeTransferFrom",
      "outputs": [],
      "stateMutability": "nonpayable",
      "type": "function"
    },
    {
      "inputs": [
        {
          "internalType": "address",
          "name": "operator",
          "type": "address"
        },
        {
          "internalType": "bool",
          "name": "approved",
          "type": "bool"
        }
      ],
      "name": "setApprovalForAll",
      "outputs": [],
      "stateMutability": "nonpayable",
      "type": "function"
    },
    {
      "inputs": [
        {
          "internalType": "bytes4",
          "name": "interfaceId",
          "type": "bytes4"
        }
      ],
      "name": "supportsInterface",
      "outputs": [
        {
          "internalType": "bool",
          "name": "",
          "type": "bool"
        }
      ],
      "stateMutability": "view",
      "type": "function"
    },
    {
      "inputs": [],
      "name": "symbol",
      "outputs": [
        {
          "internalType": "string",
          "name": "",
          "type": "string"
        }
      ],
      "stateMutability": "view",
      "type": "function"
    },
    {
      "inputs": [
        {
          "internalType": "uint256",
          "name": "tokenId",
          "type": "uint256"
        }
      ],
      "name": "tokenURI",
      "outputs": [
        {
          "internalType": "string",
          "name": "",
          "type": "string"
        }
      ],
      "stateMutability": "view",
      "type": "function"
    },
    {
      "inputs": [
        {
          "internalType": "address",
          "name": "from",
          "type": "address"
        },
        {
          "internalType": "address",
          "name": "to",
          "type": "address"
        },
        {
          "internalType": "uint256",
          "name": "tokenId",
          "type": "uint256"
        }
      ],
      "name": "transferFrom",
      "outputs": [],
      "stateMutability": "nonpayable",
      "type": "function"
    },
    {
      "inputs": [
        {
          "internalType": "address",
          "name": "newOwner",
          "type": "address"
        }
      ],
      "name": "transferOwnership",
      "outputs": [],
      "stateMutability": "nonpayable",
      "type": "function"
    }
  ],
  "bytecode": "0x60806040523480156200001157600080fd5b506040518060400160405280601081526020017f50726f6f664f664b6e6f776c65646765000000000000000000000000000000008152506040518060400160405280600381526020017f504f4b0000000000000000000000000000000000000000000000000000000000815250816000908051906020019062000096929190620001a6565b508060019080519060200190620000af929190620001a6565b505050620000d2620000c6620000d860201b60201c565b620000e060201b60201c565b620002bb565b600033905090565b6000600760009054906101000a900473ffffffffffffffffffffffffffffffffffffffff16905081600760006101000a81548173ffffffffffffffffffffffffffffffffffffffff021916908373ffffffffffffffffffffffffffffffffffffffff1602179055508173ffffffffffffffffffffffffffffffffffffffff168173ffffffffffffffffffffffffffffffffffffffff167f8be0079c531659141344cd1fd0a4f28419497f9722a3daafe3b4186f6b6457e060405160405180910390a35050565b828054620001b49062000285565b90600052602060002090601f016020900481019282620001d8576000855562000224565b82601f10620001f357805160ff191683800117855562000224565b8280016001018555821562000224579182015b828111156200022357825182559160200191906001019062000206565b5b50905062000233919062000237565b5090565b5b808211156200025257600081600090555060010162000238565b5090565b7f4e487b7100000000000000000000000000000000000000000000000000000000600052602260045260246000fd5b600060028204905060018216806200029e57607f821691505b60208210811415620002b557620002b462000256565b5b50919050565b612d9280620002cb6000396000f3fe608060405234801561001057600080fd5b506004361061010b5760003560e01c8063715018a6116100a2578063b88d4fde11610071578063b88d4fde146102a4578063c87b56dd146102c0578063d204c45e146102f0578063e985e9c51461030c578063f2fde38b1461033c5761010b565b8063715018a6146102425780638da5cb5b1461024c57806395d89b411461026a578063a22cb465146102885761010b565b806323b872dd116100de57806323b872dd146101aa57806342842e0e146101c65780636352211e146101e257806370a08231146102125761010b565b806301ffc9a71461011057806306fdde0314610140578063081812fc1461015e578063095ea7b31461018e575b600080fd5b61012a60048036038101906101259190611d8b565b610358565b6040516101379190611dd3565b60405180910390f35b61014861043a565b6040516101559190611e87565b60405180910390f35b61017860048036038101906101739190611edf565b6104cc565b6040516101859190611f4d565b60405180910390f35b6101a860048036038101906101a39190611f94565b610512565b005b6101c460048036038101906101bf9190611fd4565b61062a565b005b6101e060048036038101906101db9190611fd4565b61068a565b005b6101fc60048036038101906101f79190611edf565b6106aa565b6040516102099190611f4d565b60405180910390f35b61022c60048036038101906102279190612027565b610731565b6040516102399190612063565b60405180910390f35b61024a6107e9565b005b6102546107fd565b6040516102619190611f4d565b60405180910390f35b610272610827565b60405161027f9190611e87565b60405180910390f35b6102a2600480360381019061029d91906120aa565b6108b9565b005b6102be60048036038101906102b9919061221f565b6108cf565b005b6102da60048036038101906102d59190611edf565b610931565b6040516102e79190611e87565b60405180910390f35b61030a60048036038101906103059190612343565b610943565b005b6103266004803603810190610321919061239f565b61097c565b6040516103339190611dd3565b60405180910390f35b61035660048036038101906103519190612027565b610a10565b005b60007f80ac58cd000000000000000000000000000000000000000000000000000000007bffffffffffffffffffffffffffffffffffffffffffffffffffffffff1916827bffffffffffffffffffffffffffffffffffffffffffffffffffffffff1916148061042357507f5b5e139f000000000000000000000000000000000000000000000000000000007bffffffffffffffffffffffffffffffffffffffffffffffffffffffff1916827bffffffffffffffffffffffffffffffffffffffffffffffffffffffff1916145b80610433575061043282610a94565b5b9050919050565b6060600080546104499061240e565b80601f01602080910402602001604051908101604052809291908181526020018280546104759061240e565b80156104c25780601f10610497576101008083540402835291602001916104c2565b820191906000526020600020905b8154815290600101906020018083116104a557829003601f168201915b5050505050905090565b60006104d782610afe565b6004600083815260200190815260200160002060009054906101000a900473ffffffffffffffffffffffffffffffffffffffff169050919050565b600061051d826106aa565b90508073ffffffffffffffffffffffffffffffffffffffff168373ffffffffffffffffffffffffffffffffffffffff16141561058e576040517f08c379a0000000000000000000000000000000000000000000000000000000008152600401610585906124b2565b60405180910390fd5b8073ffffffffffffffffffffffffffffffffffffffff166105ad610b49565b73ffffffffffffffffffffffffffffffffffffffff1614806105dc57506105db816105d6610b49565b61097c565b5b61061b576040517f08c379a000000000000000000000000000000000000000000000000000000000815260040161061290612544565b60405180910390fd5b6106258383610b51565b505050565b61063b610635610b49565b82610c0a565b61067a576040517f08c379a0000000000000000000000000000000000000000000000000000000008152600401610671906125d6565b60405180910390fd5b610685838383610c9f565b505050565b6106a5838383604051806020016040528060008152506108cf565b505050565b6000806106b683610f99565b9050600073ffffffffffffffffffffffffffffffffffffffff168173ffffffffffffffffffffffffffffffffffffffff161415610728576040517f08c379a000000000000000000000000000000000000000000000000000000000815260040161071f90612642565b60405180910390fd5b80915050919050565b60008073ffffffffffffffffffffffffffffffffffffffff168273ffffffffffffffffffffffffffffffffffffffff1614156107a2576040517f08c379a0000000000000000000000000000000000000000000000000000000008152600401610799906126d4565b60405180910390fd5b600360008373ffffffffffffffffffffffffffffffffffffffff1673ffffffffffffffffffffffffffffffffffffffff168152602001908152602001600020549050919050565b6107f1610fd6565b6107fb6000611054565b565b6000600760009054906101000a900473ffffffffffffffffffffffffffffffffffffffff16905090565b6060600180546108369061240e565b80601f01602080910402602001604051908101604052809291908181526020018280546108629061240e565b80156108af5780601f10610884576101008083540402835291602001916108af565b820191906000526020600020905b81548152906001019060200180831161089257829003601f168201915b5050505050905090565b6108cb6108c4610b49565b838361111a565b5050565b6108e06108da610b49565b83610c0a565b61091f576040517f08c379a0000000000000000000000000000000000000000000000000000000008152600401610916906125d6565b60405180910390fd5b61092b84848484611287565b50505050565b606061093c826112e3565b9050919050565b61094b610fd6565b600061095760086113f6565b90506109636008611404565b61096d838261141a565b6109778183611438565b505050565b6000600560008473ffffffffffffffffffffffffffffffffffffffff1673ffffffffffffffffffffffffffffffffffffffff16815260200190815260200160002060008373ffffffffffffffffffffffffffffffffffffffff1673ffffffffffffffffffffffffffffffffffffffff16815260200190815260200160002060009054906101000a900460ff16905092915050565b610a18610fd6565b600073ffffffffffffffffffffffffffffffffffffffff168173ffffffffffffffffffffffffffffffffffffffff161415610a88576040517f08c379a0000000000000000000000000000000000000000000000000000000008152600401610a7f90612766565b60405180910390fd5b610a9181611054565b50565b60007f01ffc9a7000000000000000000000000000000000000000000000000000000007bffffffffffffffffffffffffffffffffffffffffffffffffffffffff1916827bffffffffffffffffffffffffffffffffffffffffffffffffffffffff1916149050919050565b610b07816114ac565b610b46576040517f08c379a0000000000000000000000000000000000000000000000000000000008152600401610b3d90612642565b60405180910390fd5b50565b600033905090565b816004600083815260200190815260200160002060006101000a81548173ffffffffffffffffffffffffffffffffffffffff021916908373ffffffffffffffffffffffffffffffffffffffff160217905550808273ffffffffffffffffffffffffffffffffffffffff16610bc4836106aa565b73ffffffffffffffffffffffffffffffffffffffff167f8c5be1e5ebec7d5bd14f71427d1e84f3dd0314c0f7b2291e5b200ac8c7c3b92560405160405180910390a45050565b600080610c16836106aa565b90508073ffffffffffffffffffffffffffffffffffffffff168473ffffffffffffffffffffffffffffffffffffffff161480610c585750610c57818561097c565b5b80610c9657508373ffffffffffffffffffffffffffffffffffffffff16610c7e846104cc565b73ffffffffffffffffffffffffffffffffffffffff16145b91505092915050565b8273ffffffffffffffffffffffffffffffffffffffff16610cbf826106aa565b73ffffffffffffffffffffffffffffffffffffffff1614610d15576040517f08c379a0000000000000000000000000000000000000000000000000000000008152600401610d0c906127f8565b60405180910390fd5b600073ffffffffffffffffffffffffffffffffffffffff168273ffffffffffffffffffffffffffffffffffffffff161415610d85576040517f08c379a0000000000000000000000000000000000000000000000000000000008152600401610d7c9061288a565b60405180910390fd5b610d9283838360016114ed565b8273ffffffffffffffffffffffffffffffffffffffff16610db2826106aa565b73ffffffffffffffffffffffffffffffffffffffff1614610e08576040517f08c379a0000000000000000000000000000000000000000000000000000000008152600401610dff906127f8565b60405180910390fd5b6004600082815260200190815260200160002060006101000a81549073ffffffffffffffffffffffffffffffffffffffff02191690556001600360008573ffffffffffffffffffffffffffffffffffffffff1673ffffffffffffffffffffffffffffffffffffffff168152602001908152602001600020600082825403925050819055506001600360008473ffffffffffffffffffffffffffffffffffffffff1673ffffffffffffffffffffffffffffffffffffffff16815260200190815260200160002060008282540192505081905550816002600083815260200190815260200160002060006101000a81548173ffffffffffffffffffffffffffffffffffffffff021916908373ffffffffffffffffffffffffffffffffffffffff160217905550808273ffffffffffffffffffffffffffffffffffffffff168473ffffffffffffffffffffffffffffffffffffffff167fddf252ad1be2c89b69c2b068fc378daa952ba7f163c4a11628f55a4df523b3ef60405160405180910390a4610f948383836001611599565b505050565b60006002600083815260200190815260200160002060009054906101000a900473ffffffffffffffffffffffffffffffffffffffff169050919050565b610fde610b49565b73ffffffffffffffffffffffffffffffffffffffff16610ffc6107fd565b73ffffffffffffffffffffffffffffffffffffffff1614611052576040517f08c379a0000000000000000000000000000000000000000000000000000000008152600401611049906128f6565b60405180910390fd5b565b6000600760009054906101000a900473ffffffffffffffffffffffffffffffffffffffff16905081600760006101000a81548173ffffffffffffffffffffffffffffffffffffffff021916908373ffffffffffffffffffffffffffffffffffffffff1602179055508173ffffffffffffffffffffffffffffffffffffffff168173ffffffffffffffffffffffffffffffffffffffff167f8be0079c531659141344cd1fd0a4f28419497f9722a3daafe3b4186f6b6457e060405160405180910390a35050565b8173ffffffffffffffffffffffffffffffffffffffff168373ffffffffffffffffffffffffffffffffffffffff161415611189576040517f08c379a000000000000000000000000000000000000000000000000000000000815260040161118090612962565b60405180910390fd5b80600560008573ffffffffffffffffffffffffffffffffffffffff1673ffffffffffffffffffffffffffffffffffffffff16815260200190815260200160002060008473ffffffffffffffffffffffffffffffffffffffff1673ffffffffffffffffffffffffffffffffffffffff16815260200190815260200160002060006101000a81548160ff0219169083151502179055508173ffffffffffffffffffffffffffffffffffffffff168373ffffffffffffffffffffffffffffffffffffffff167f17307eab39ab6107e8899845ad3d59bd9653f200f220920489ca2b5937696c318360405161127a9190611dd3565b60405180910390a3505050565b611292848484610c9f565b61129e8484848461159f565b6112dd576040517f08c379a00000000000000000000000000000000000000000000000000000000081526004016112d4906129f4565b60405180910390fd5b50505050565b60606112ee82610afe565b600060066000848152602001908152602001600020805461130e9061240e565b80601f016020809104026020016040519081016040528092919081815260200182805461133a9061240e565b80156113875780601f1061135c57610100808354040283529160200191611387565b820191906000526020600020905b81548152906001019060200180831161136a57829003601f168201915b505050505090506000611398611736565b90506000815114156113ae5781925050506113f1565b6000825111156113e35780826040516020016113cb929190612a50565b604051602081830303815290604052925050506113f1565b6113ec8461174d565b925050505b919050565b600081600001549050919050565b6001816000016000828254019250508190555050565b6114348282604051806020016040528060008152506117b5565b5050565b611441826114ac565b611480576040517f08c379a000000000000000000000000000000000000000000000000000000000815260040161147790612ae6565b60405180910390fd5b806006600084815260200190815260200160002090805190602001906114a7929190611c7c565b505050565b60008073ffffffffffffffffffffffffffffffffffffffff166114ce83610f99565b73ffffffffffffffffffffffffffffffffffffffff1614159050919050565b600073ffffffffffffffffffffffffffffffffffffffff168473ffffffffffffffffffffffffffffffffffffffff1614806115545750600073ffffffffffffffffffffffffffffffffffffffff168373ffffffffffffffffffffffffffffffffffffffff16145b611593576040517f08c379a000000000000000000000000000000000000000000000000000000000815260040161158a90612b52565b60405180910390fd5b50505050565b50505050565b60006115c08473ffffffffffffffffffffffffffffffffffffffff16611810565b15611729578373ffffffffffffffffffffffffffffffffffffffff1663150b7a026115e9610b49565b8786866040518563ffffffff1660e01b815260040161160b9493929190612bc7565b602060405180830381600087803b15801561162557600080fd5b505af192505050801561165657506040513d601f19601f820116820180604052508101906116539190612c28565b60015b6116d9573d8060008114611686576040519150601f19603f3d011682016040523d82523d6000602084013e61168b565b606091505b506000815114156116d1576040517f08c379a00000000000000000000000000000000000000000000000000000000081526004016116c8906129f4565b60405180910390fd5b805181602001fd5b63150b7a0260e01b7bffffffffffffffffffffffffffffffffffffffffffffffffffffffff1916817bffffffffffffffffffffffffffffffffffffffffffffffffffffffff19161491505061172e565b600190505b949350505050565b606060405180602001604052806000815250905090565b606061175882610afe565b6000611762611736565b9050600081511161178257604051806020016040528060008152506117ad565b8061178c84611833565b60405160200161179d929190612a50565b6040516020818303038152906040525b915050919050565b6117bf838361190b565b6117cc600084848461159f565b61180b576040517f08c379a0000000000000000000000000000000000000000000000000000000008152600401611802906129f4565b60405180910390fd5b505050565b6000808273ffffffffffffffffffffffffffffffffffffffff163b119050919050565b60606000600161184284611b29565b01905060008167ffffffffffffffff811115611861576118606120f4565b5b6040519080825280601f01601f1916602001820160405280156118935781602001600182028036833780820191505090505b509050600082602001820190505b600115611900578080600190039150507f3031323334353637383961626364656600000000000000000000000000000000600a86061a8153600a85816118ea576118e9612c55565b5b04945060008514156118fb57611900565b6118a1565b819350505050919050565b600073ffffffffffffffffffffffffffffffffffffffff168273ffffffffffffffffffffffffffffffffffffffff16141561197b576040517f08c379a000000000000000000000000000000000000000000000000000000000815260040161197290612cd0565b60405180910390fd5b611984816114ac565b156119c4576040517f08c379a00000000000000000000000000000000000000000000000000000000081526004016119bb90612d3c565b60405180910390fd5b6119d26000838360016114ed565b6119db816114ac565b15611a1b576040517f08c379a0000000000000000000000000000000000000000000000000000000008152600401611a1290612d3c565b60405180910390fd5b6001600360008473ffffffffffffffffffffffffffffffffffffffff1673ffffffffffffffffffffffffffffffffffffffff16815260200190815260200160002060008282540192505081905550816002600083815260200190815260200160002060006101000a81548173ffffffffffffffffffffffffffffffffffffffff021916908373ffffffffffffffffffffffffffffffffffffffff160217905550808273ffffffffffffffffffffffffffffffffffffffff16600073ffffffffffffffffffffffffffffffffffffffff167fddf252ad1be2c89b69c2b068fc378daa952ba7f163c4a11628f55a4df523b3ef60405160405180910390a4611b25600083836001611599565b5050565b600080600090507a184f03e93ff9f4daa797ed6e38ed64bf6a1f0100000000000000008310611b87577a184f03e93ff9f4daa797ed6e38ed64bf6a1f0100000000000000008381611b7d57611b7c612c55565b5b0492506040810190505b6d04ee2d6d415b85acef81000000008310611bc4576d04ee2d6d415b85acef81000000008381611bba57611bb9612c55565b5b0492506020810190505b662386f26fc100008310611bf357662386f26fc100008381611be957611be8612c55565b5b0492506010810190505b6305f5e1008310611c1c576305f5e1008381611c1257611c11612c55565b5b0492506008810190505b6127108310611c41576127108381611c3757611c36612c55565b5b0492506004810190505b60648310611c645760648381611c5a57611c59612c55565b5b0492506002810190505b600a8310611c73576001810190505b80915050919050565b828054611c889061240e565b90600052602060002090601f016020900481019282611caa5760008555611cf1565b82601f10611cc357805160ff1916838001178555611cf1565b82800160010185558215611cf1579182015b82811115611cf0578251825591602001919060010190611cd5565b5b509050611cfe9190611d02565b5090565b5b80821115611d1b576000816000905550600101611d03565b5090565b6000604051905090565b600080fd5b600080fd5b60007fffffffff0000000000000000000000000000000000000000000000000000000082169050919050565b611d6881611d33565b8114611d7357600080fd5b50565b600081359050611d8581611d5f565b92915050565b600060208284031215611da157611da0611d29565b5b6000611daf84828501611d76565b91505092915050565b60008115159050919050565b611dcd81611db8565b82525050565b6000602082019050611de86000830184611dc4565b92915050565b600081519050919050565b600082825260208201905092915050565b60005b83811015611e28578082015181840152602081019050611e0d565b83811115611e37576000848401525b50505050565b6000601f19601f8301169050919050565b6000611e5982611dee565b611e638185611df9565b9350611e73818560208601611e0a565b611e7c81611e3d565b840191505092915050565b60006020820190508181036000830152611ea18184611e4e565b905092915050565b6000819050919050565b611ebc81611ea9565b8114611ec757600080fd5b50565b600081359050611ed981611eb3565b92915050565b600060208284031215611ef557611ef4611d29565b5b6000611f0384828501611eca565b91505092915050565b600073ffffffffffffffffffffffffffffffffffffffff82169050919050565b6000611f3782611f0c565b9050919050565b611f4781611f2c565b82525050565b6000602082019050611f626000830184611f3e565b92915050565b611f7181611f2c565b8114611f7c57600080fd5b50565b600081359050611f8e81611f68565b92915050565b60008060408385031215611fab57611faa611d29565b5b6000611fb985828601611f7f565b9250506020611fca85828601611eca565b9150509250929050565b600080600060608486031215611fed57611fec611d29565b5b6000611ffb86828701611f7f565b935050602061200c86828701611f7f565b925050604061201d86828701611eca565b9150509250925092565b60006020828403121561203d5761203c611d29565b5b600061204b84828501611f7f565b91505092915050565b61205d81611ea9565b82525050565b60006020820190506120786000830184612054565b92915050565b61208781611db8565b811461209257600080fd5b50565b6000813590506120a48161207e565b92915050565b600080604083850312156120c1576120c0611d29565b5b60006120cf85828601611f7f565b92505060206120e085828601612095565b9150509250929050565b600080fd5b600080fd5b7f4e487b7100000000000000000000000000000000000000000000000000000000600052604160045260246000fd5b61212c82611e3d565b810181811067ffffffffffffffff8211171561214b5761214a6120f4565b5b80604052505050565b600061215e611d1f565b905061216a8282612123565b919050565b600067ffffffffffffffff82111561218a576121896120f4565b5b61219382611e3d565b9050602081019050919050565b82818337600083830152505050565b60006121c26121bd8461216f565b612154565b9050828152602081018484840111156121de576121dd6120ef565b5b6121e98482856121a0565b509392505050565b600082601f830112612206576122056120ea565b5b81356122168482602086016121af565b91505092915050565b6000806000806080858703121561223957612238611d29565b5b600061224787828801611f7f565b945050602061225887828801611f7f565b935050604061226987828801611eca565b925050606085013567ffffffffffffffff81111561228a57612289611d2e565b5b612296878288016121f1565b91505092959194509250565b600067ffffffffffffffff8211156122bd576122bc6120f4565b5b6122c682611e3d565b9050602081019050919050565b60006122e66122e1846122a2565b612154565b905082815260208101848484011115612302576123016120ef565b5b61230d8482856121a0565b509392505050565b600082601f83011261232a576123296120ea565b5b813561233a8482602086016122d3565b91505092915050565b6000806040838503121561235a57612359611d29565b5b600061236885828601611f7f565b925050602083013567ffffffffffffffff81111561238957612388611d2e565b5b61239585828601612315565b9150509250929050565b600080604083850312156123b6576123b5611d29565b5b60006123c485828601611f7f565b92505060206123d585828601611f7f565b9150509250929050565b7f4e487b7100000000000000000000000000000000000000000000000000000000600052602260045260246000fd5b6000600282049050600182168061242657607f821691505b6020821081141561243a576124396123df565b5b50919050565b7f4552433732313a20617070726f76616c20746f2063757272656e74206f776e6560008201527f7200000000000000000000000000000000000000000000000000000000000000602082015250565b600061249c602183611df9565b91506124a782612440565b604082019050919050565b600060208201905081810360008301526124cb8161248f565b9050919050565b7f4552433732313a20617070726f76652063616c6c6572206973206e6f7420746f60008201527f6b656e206f776e6572206f7220617070726f76656420666f7220616c6c000000602082015250565b600061252e603d83611df9565b9150612539826124d2565b604082019050919050565b6000602082019050818103600083015261255d81612521565b9050919050565b7f4552433732313a2063616c6c6572206973206e6f7420746f6b656e206f776e6560008201527f72206f7220617070726f76656400000000000000000000000000000000000000602082015250565b60006125c0602d83611df9565b91506125cb82612564565b604082019050919050565b600060208201905081810360008301526125ef816125b3565b9050919050565b7f4552433732313a20696e76616c696420746f6b656e2049440000000000000000600082015250565b600061262c601883611df9565b9150612637826125f6565b602082019050919050565b6000602082019050818103600083015261265b8161261f565b9050919050565b7f4552433732313a2061646472657373207a65726f206973206e6f74206120766160008201527f6c6964206f776e65720000000000000000000000000000000000000000000000602082015250565b60006126be602983611df9565b91506126c982612662565b604082019050919050565b600060208201905081810360008301526126ed816126b1565b9050919050565b7f4f776e61626c653a206e6577206f776e657220697320746865207a65726f206160008201527f6464726573730000000000000000000000000000000000000000000000000000602082015250565b6000612750602683611df9565b915061275b826126f4565b604082019050919050565b6000602082019050818103600083015261277f81612743565b9050919050565b7f4552433732313a207472616e736665722066726f6d20696e636f72726563742060008201527f6f776e6572000000000000000000000000000000000000000000000000000000602082015250565b60006127e2602583611df9565b91506127ed82612786565b604082019050919050565b60006020820190508181036000830152612811816127d5565b9050919050565b7f4552433732313a207472616e7366657220746f20746865207a65726f2061646460008201527f7265737300000000000000000000000000000000000000000000000000000000602082015250565b6000612874602483611df9565b915061287f82612818565b604082019050919050565b600060208201905081810360008301526128a381612867565b9050919050565b7f4f776e61626c653a2063616c6c6572206973206e6f7420746865206f776e6572600082015250565b60006128e0602083611df9565b91506128eb826128aa565b602082019050919050565b6000602082019050818103600083015261290f816128d3565b9050919050565b7f4552433732313a20617070726f766520746f2063616c6c657200000000000000600082015250565b600061294c601983611df9565b915061295782612916565b602082019050919050565b6000602082019050818103600083015261297b8161293f565b9050919050565b7f4552433732313a207472616e7366657220746f206e6f6e20455243373231526560008201527f63656976657220696d706c656d656e7465720000000000000000000000000000602082015250565b60006129de603283611df9565b91506129e982612982565b604082019050919050565b60006020820190508181036000830152612a0d816129d1565b9050919050565b600081905092915050565b6000612a2a82611dee565b612a348185612a14565b9350612a44818560208601611e0a565b80840191505092915050565b6000612a5c8285612a1f565b9150612a688284612a1f565b91508190509392505050565b7f45524337323155524953746f726167653a2055524920736574206f66206e6f6e60008201527f6578697374656e7420746f6b656e000000000000000000000000000000000000602082015250565b6000612ad0602e83611df9565b9150612adb82612a74565b604082019050919050565b60006020820190508181036000830152612aff81612ac3565b9050919050565b7f5472616e73666572206973206e6f7420616c6c6f776564000000000000000000600082015250565b6000612b3c601783611df9565b9150612b4782612b06565b602082019050919050565b60006020820190508181036000830152612b6b81612b2f565b9050919050565b600081519050919050565b600082825260208201905092915050565b6000612b9982612b72565b612ba38185612b7d565b9350612bb3818560208601611e0a565b612bbc81611e3d565b840191505092915050565b6000608082019050612bdc6000830187611f3e565b612be96020830186611f3e565b612bf66040830185612054565b8181036060830152612c088184612b8e565b905095945050505050565b600081519050612c2281611d5f565b92915050565b600060208284031215612c3e57612c3d611d29565b5b6000612c4c84828501612c13565b91505092915050565b7f4e487b7100000000000000000000000000000000000000000000000000000000600052601260045260246000fd5b7f4552433732313a206d696e7420746f20746865207a65726f2061646472657373600082015250565b6000612cba602083611df9565b9150612cc582612c84565b602082019050919050565b60006020820190508181036000830152612ce981612cad565b9050919050565b7f4552433732313a20746f6b656e20616c7265616479206d696e74656400000000600082015250565b6000612d26601c83611df9565b9150612d3182612cf0565b602082019050919050565b60006020820190508181036000830152612d5581612d19565b905091905056fea2646970667358221220619c2813cae8d9629c7e9d9c77c0718f1e016a3a504fa6f821ced6c88af0dcff64736f6c63430008090033",
  "linkReferences": {},
  "deployedLinkReferences": {}
}